:100000000C943E000C945B000C945B000C945B0021
:100010000C945B000C945B000C945B000C945B00F4
:100020000C945B000C945B000C945B000C945B00E4
:100030000C94A3010C945B000C945B000C948C0159
:100040000C9464010C945B000C945B000C945B00BA
:100050000C9418010C945B000C945B000C945B00F6
:100060000C945B000C945B000C945B000C945B00A4
:100070000C945B000C945B000C945B0011241FBE7D
:10008000CFEFD8E0DEBFCDBF11E0A0E0B1E0E0E10E
:10009000F4E002C005900D92AC30B107D9F721E031
:1000A000ACE0B1E001C01D92A932B207E1F70E94B5
:1000B000BF010C9406020C940000109888230CF4E5
:1000C000109A119886FD119A129885FD129A13982C
:1000D00084FD139A149A82E08A95F1F700C014986F
:1000E00082E08A95F1F700C00895CF93C82F159A42
:1000F00014980E945D008C2F8295807F0E945D0085
:10010000CF910895CF93DF93EC018881882351F03C
:1001100021960E94750085E88A95F1F70000899183
:100120008111F7CFDF91CF910895CF93C82F159804
:1001300014980E945D008C2F8295807F0E945D0044
:10014000CF91089581B18F6381B92FEF80E792E05D
:10015000215080409040E1F700C0000015981498AD
:1001600080E30E945D008FE79EE30197F1F700C0F6
:10017000000080E30E945D008FE891E00197F1F7B5
:1001800000C0000080E30E945D008FE891E00197CD
:10019000F1F700C0000088E20E945D0095E89A95A2
:1001A000F1F7000088E20E94950025E82A95F1F712
:1001B000000088E00E94950085E88A95F1F700002C
:1001C00081E00E9495008FE697E10197F1F700C06A
:1001D000000086E00E9495009AE69A95F1F700C02B
:1001E0008CE00E94950025E82A95F1F7000008951B
:1001F0001092C50083E38093C400E1ECF0E088E155
:10020000808386E08093C200808180688083089527
:10021000E0ECF0E080818823ECF78091C60008953F
:10022000E0ECF0E0908195FFFDCF8093C60008954B
:100230001F920F920FB60F9211242F933F934F935B
:100240005F936F937F938F939F93AF93BF93EF933E
:10025000FF930E94080190912001911117C0AEE018
:10026000B1E05196EC91519791E09E0F51969C937D
:100270005197F0E0E25FFE4F808351969C91519739
:10028000903121F4FD01118A91E0928B0E941001BE
:10029000FF91EF91BF91AF919F918F917F916F915E
:1002A0005F914F913F912F910F900FBE0F901F9034
:1002B0001895239A84B5826084BD85B5846085BD18
:1002C00085E087BD2B9808951F920F920FB60F926D
:1002D00011248F939F9395B188E0892785B99F91C9
:1002E0008F910F900FBE0F901F901895579AE0EBCB
:1002F000F0E0808183648083E1EBF0E080818960BD
:1003000080838FE18093B300089581E280936F0032
:1003100080EC8093810008951F920F920FB60F9288
:1003200011248F939F9380910C0190910D01019660
:1003300090930D0180930C019F918F910F900FBEB0
:100340000F901F9018951F920F920FB60F921124C5
:100350008F939F93809186009091870090932801BE
:10036000809327011092810010920D0110920C01D0
:100370009F918F910F900FBE0F901F9018950E9424
:10038000A2000E94F8000E9459010E9476010E947A
:100390008501789480E091E00E9482000EE011E0F7
:1003A000CC24C394D12C0F2EFEE6EF2EF12CF02D91
:1003B000F80182898823E1F380EC0E949500CC2D1E
:1003C000DD2DFE01E25FFE4F80810E94750085E811
:1003D0008A95F1F700002196CB30D10591F78AE09C
:1003E0000E941001F701808182608083FFEF21EE7F
:1003F00084E0F15020408040E1F700C00000F701A8
:1004000080818D7F8083F801128AD2CFF894FFCF4C
:0C0410005363616E20612074616700007E
:00000001FF
