S0120000524652656365697665722E7372656345
S11300000C943E000C9459010C945B000C945B001E
S11300100C945B000C945B000C945B000C945B00F0
S11300200C945B000C945B000C945B000C945B00E0
S11300300C945B000C945B000C945B000C945B00D0
S11300400C945B000C945B000C945B000C945B00C0
S11300500C9402010C945B000C945B000C945B0008
S11300600C945B000C945B000C945B000C945B00A0
S11300700C945B000C945B000C945B0011241FBE79
S1130080CFEFD0E1DEBFCDBF11E0A0E0B1E0EAE404
S1130090F3E002C005900D92A030B107D9F723E038
S11300A0A0E0B1E001C01D92AD30B207E1F70E94BB
S11300B087010C94A3010C940000109888230CF47D
S11300C0109A119886FD119A129885FD129A139828
S11300D084FD139A149A82E08A95F1F700C014986B
S11300E082E08A95F1F700C00895CF93C82F159840
S11300F014980E945D008AE18A95F1F700C08C2F64
S11301008295807F0E945D008FE097E20197F1F76E
S113011000C00000CF91089581B18F6381B92FEFA2
S113012080E792E0215080409040E1F700C0000059
S11301301598149880E30E945D008FE79EE3019771
S1130140F1F700C0000080E30E945D008FE891E0B9
S11301500197F1F700C0000080E30E945D008FE882
S113016091E00197F1F700C0000088E20E945D0071
S113017095E89A95F1F7000088E20E94750025E859
S11301802A95F1F7000088E00E94750085E88A95B9
S1130190F1F7000081E00E9475008FE697E1019776
S11301A0F1F700C0000086E00E9475009AE69A9577
S11301B0F1F700C08CE00E94750025E82A95F1F75C
S11301C0000008951092C50083E38093C400E1EC1D
S11301D0F0E088E1808386E08093C20080818068BB
S11301E080830895E0ECF0E080818823ECF780912F
S11301F0C6000895E0ECF0E0908195FFFDCF809378
S1130200C60008951F920F920FB60F9211242F93D8
S11302103F934F935F936F937F938F939F93AF938A
S1130220BF93EF93FF930E94F20090910A03911100
S113023017C0A8EFB2E05196EC91519791E09E0F50
S113024051969C935197F0E0E850FD4F808351966E
S11302509C915197903121F4FD01118A91E0928B88
S11302600E94FA00FF91EF91BF91AF919F918F91FE
S11302707F916F915F914F913F912F910F900FBE9E
S11302800F901F901895579AE0EBF0E080818364FB
S11302908083E1EBF0E08081896080838FE180934B
S11302A0B300089552985A9A81E08DBB8CBB85BFE8
S11302B008951F920F920FB60F9211248F939F935C
S11302C0EF93FF938BEB92E00197F1F700C00000EE
S11302D0E0910001F091010189B1EE5FFE4F82FBD4
S11302E0882780F982838091000190910101019611
S11302F0909301018093000181E08CBBFF91EF9109
S11303009F918F910F900FBE0F901F9018950E9490
S11303108C000E94E2000E9443010E94520184B1B9
S1130320806B84B98DB581608DBD8CB580658CBDC5
S11303302C9A78948091000190910101843F91401E
S10D0340C9F7F894F7CFF894FFCF43
S9030000FC
