:100000000C943E000C94A2010C945B000C945B00D9
:100010000C945B000C945B000C945B000C945B00F4
:100020000C945B000C945B000C945B000C945B00E4
:100030000C945B000C945B000C945B000C945B00D4
:100040000C945B000C945B000C945B000C945B00C4
:100050000C945B000C945B000C945B000C945B00B4
:100060000C945B000C945B000C945B000C945B00A4
:100070000C945B000C945B000C945B0011241FBE7D
:10008000CFEFD0E1DEBFCDBF11E0A0E0B1E0E4EF03
:10009000F4E002C005900D92AA38B107D9F723E029
:1000A000AAE8B1E001C01D92A738B207E1F70E94AB
:1000B0005D020C9478020C940000109888230CF4D4
:1000C000109A119886FD119A129885FD129A13982C
:1000D00084FD139A149A82E08A95F1F700C014986F
:1000E00082E08A95F1F700C00895CF93C82F159A42
:1000F00014980E945D008C2F8295807F0E945D0085
:10010000CF910895CF93DF93EC018881882351F03C
:1001100021960E94750085E88A95F1F70000899183
:100120008111F7CFDF91CF910895CF93C82F159804
:1001300014980E945D008AE18A95F1F700C08C2F27
:100140008295807F0E945D008FE097E20197F1F732
:1001500000C00000CF91089581B18F6381B92FEF66
:1001600080E792E0215080409040E1F700C000001D
:100170001598149880E30E945D008FE79EE3019735
:10018000F1F700C0000080E30E945D008FE891E07D
:100190000197F1F700C0000080E30E945D008FE846
:1001A00091E00197F1F700C0000088E20E945D0035
:1001B00095E89A95F1F7000088E20E94950025E8FD
:1001C0002A95F1F7000088E00E94950085E88A955D
:1001D000F1F7000081E00E9495008FE697E101971A
:1001E000F1F700C0000086E00E9495009AE69A951B
:1001F000F1F700C08CE00E94950025E82A95F1F700
:10020000000008951092C50083E38093C400E1ECE0
:10021000F0E088E1808386E08093C200808180687E
:10022000808308952C98880F991F880F991F9069D3
:100230009EBD0DB407FEFDCF8EBD0DB407FEFDCFF4
:100240002C9A0895CF93DF9300D000D0CDB7DEB7BE
:10025000611571058105910581F41C821B828B81DA
:100260009C81892BF1F48B819C8101969C838B83EB
:100270008B819C81892BB9F314C061307105810594
:10028000910579F41A82198289819A81029748F43A
:1002900089819A8101969A83898389819A810297BB
:1002A000B8F30F900F900F900F90DF91CF910895BA
:1002B000CF92DF92EF92FF920F931F93CF93DF9332
:1002C0006B017C01EA018A010C591F4F89919991B8
:1002D0000E941201C701B6010E942201C017D10776
:1002E000A9F7DF91CF911F910F91FF90EF90DF90D1
:1002F000CF900895CF93C6E96091210170912201BA
:10030000809123019091240145E251E00E9458011F
:10031000C15091F7CF910895579AE0EBF0E08081BA
:1003200083648083E1EBF0E08081896080838FE1EA
:100330008093B300089552985A9A81E08DBB8CBB8C
:1003400085BF08951F920F920FB60F9211242F931D
:100350008F939F93EF93FF938BEB92E00197F1F7CD
:1003600000C00000E0918C01F0918D0189B1E2574D
:10037000FE4F82FB882780F98083E0918C01F09109
:100380008D01E257FE4F80818130A1F4E0918C0114
:10039000F0918D01E257FE4F208180918A0190916A
:1003A0008B01820F911D90938B0180938A01099795
:1003B00031F015C010928B0110928A0110C080910B
:1003C000860381110CC080918C0190918D01019662
:1003D000909385038093840381E0809386038091CA
:1003E0008C0190918D01833F914054F480918C0158
:1003F00090918D01019690938D0180938C0107C09F
:1004000010928D0110928C0110928603F89481E075
:100410008CBBFF91EF919F918F912F910F900FBE09
:100420000F901F901895CF93DF9380918C0190913E
:100430008D01833F9140D9F540918403509185030C
:10044000FA01E257FE4F838590E0909383038093F7
:100450008203FA01E656FE4F4F535E4F2191820F01
:10046000911DE417F507D1F7C2E8D3E0998388839B
:1004700081E00E949500888199818032910559F030
:100480008132910571F04F97A1F486E191E00E94CD
:10049000820081E00FC08BE091E00E94820081E049
:1004A00009C080E091E00E94820081E003C080E00A
:1004B00001C081E0DF91CF9108950E94AC000E94BD
:1004C00002010E948C010E949B0184B1806B84B95F
:1004D0008DB581608DBD8CB580658CBD2C9A78946E
:1004E0000E9413028823E1F378940E947A01F8CFE6
:0404F000F894FFCFAE
:1004F40036463030354341443630003331303033C2
:10050400374439334400324330304143363933457C
:10051400000100000040027F02BC02F6022C035ED0
:10052400038A03AF03CE03E603F603FE03FE03F6DA
:1005340003E603CE03AF038A035E032C03F602BC77
:10054400027F0240020002BF01800143010901D37E
:1005540000A10075005000310019000900010001DC
:100564000009001900310050007500A100D30009F2
:0A0574000143018001BF01FF0100F7
:00000001FF
