S0120000524652656365697665722E7372656345
S11300000C943E000C945B000C945B000C945B001D
S11300100C945B000C945B000C945B000C945B00F0
S11300200C945B000C945B000C945B000C945B00E0
S11300300C94F8010C945B000C945B000C94E101AB
S11300400C945B000C945B000C945B000C945B00C0
S11300500C9422010C945B000C945B000C945B00E8
S11300600C945B000C945B000C945B000C945B00A0
S11300700C945B000C945B000C945B0011241FBE79
S1130080CFEFD0E1DEBFCDBF11E0A0E0B1E0ECEDF9
S1130090F4E002C005900D92A637B107D9F721E02C
S11300A0A6E7B1E001C01D92A339B207E1F70E94AF
S11300B014020C946C020C940000109888230CF425
S11300C0109A119886FD119A129885FD129A139828
S11300D084FD139A149A82E08A95F1F700C014986B
S11300E082E08A95F1F700C00895CF93C82F159A3E
S11300F014980E945D008C2F8295807F0E945D0081
S1130100CF910895CF93DF93EC018881882351F038
S113011021960E94750085E88A95F1F7000089917F
S11301208111F7CFDF91CF910895CF93C82F159800
S113013014980E945D008AE18A95F1F700C08C2F23
S11301408295807F0E945D008FE097E20197F1F72E
S113015000C00000CF91089581B18F6381B92FEF62
S113016080E792E0215080409040E1F700C0000019
S11301701598149880E30E945D008FE79EE3019731
S1130180F1F700C0000080E30E945D008FE891E079
S11301900197F1F700C0000080E30E945D008FE842
S11301A091E00197F1F700C0000088E20E945D0031
S11301B095E89A95F1F7000088E20E94950025E8F9
S11301C02A95F1F7000088E00E94950085E88A9559
S11301D0F1F7000081E00E9495008FE697E1019716
S11301E0F1F700C0000086E00E9495009AE69A9517
S11301F0F1F700C08CE00E94950025E82A95F1F7FC
S1130200000008951092C50083E38093C400E1ECDC
S1130210F0E088E1808386E08093C200808180687A
S113022080830895E0ECF0E080818823ECF78091EE
S1130230C6000895E0ECF0E0908195FFFDCF809337
S1130240C60008951F920F920FB60F9211242F9398
S11302503F934F935F936F937F938F939F93AF934A
S1130260BF93EF93FF930E94120190918A01911121
S113027017C0A8E7B1E05196EC91519791E09E0F19
S113028051969C935197F0E0E858FE4F8083519625
S11302909C915197903121F4FD01118A91E0928B48
S11302A00E941A01FF91EF91BF91AF919F918F919D
S11302B07F916F915F914F913F912F910F900FBE5E
S11302C00F901F9018952C98880F991F880F991FCD
S11302D090699EBD0DB407FEFDCF8EBD0DB407FE23
S11302E0FDCF2C9A0895CF93DF9300D000D0CDB7E3
S11302F0DEB7611571058105910581F41C821B82AD
S11303008B819C81892BF1F48B819C8101969C8348
S11303108B838B819C81892BB9F314C06130710567
S11303208105910579F41A82198289819A8102974B
S113033048F489819A8101969A83898389819A8173
S11303400297B8F30F900F900F900F90DF91CF9119
S11303500895CF92DF92EF92FF920F931F93CF9362
S1130360DF936B017C01EA018A010C591F4F8991CB
S113037099910E946301C701B6010E947301C017DD
S1130380D107A9F7DF91CF911F910F91FF90EF90C3
S1130390DF90CF900895579AE0EBF0E0808183647A
S11303A08083E1EBF0E08081896080838FE180933A
S11303B0B300089581E280936F0080EC8093810004
S11303C008951F920F920FB60F9211248F939F934B
S11303D080917601909177010196909377018093B3
S11303E076019F918F910F900FBE0F901F901895DB
S11303F01F920F920FB60F9211248F939F938091A7
S113040086009091870090939201809391011092BD
S1130410810010927701109276019F918F910F9035
S11304200FBE0F901F9018950E94AC000E9402010D
S11304300E94CB010E94DA0184B1806B84B98DB52E
S113044081608DBD8CB580658CBD2C9A789408E74D
S113045011E0DD24D394E12C0F2EF6E9FF2EF02DCC
S113046081E00E94950088E691E00E94820080EC81
S11304700E949500F80182898823E1F3CD2DDE2DB9
S1130480FE01E858FE4F80810E94750085E88A9538
S1130490F1F700002196CB30D10591F78AE00E9454
S11304A01A01CF2D60910001709101018091020128
S11304B09091030144E051E00E94A901C15091F7D9
S11304C09FEFEDE3F9E49150E040F040E1F700C024
S10F04D00000F801128AC4CFF894FFCF9A
S11304DC0100000040027F02BC02F6022C035E0302
S11304EC8A03AF03CE03E603F603FE03FE03F6030F
S11304FCE603CE03AF038A035E032C03F602BC02AD
S113050C7F0240020002BF01800143010901D300B4
S113051CA100750050003100190009000100010010
S113052C09001900310050007500A100D300090125
S113053C43018001BF01FF01526561647920746F2E
S109054C205363616E0000
S9030000FC
