S0120000524652656365697665722E7372656345
S11300000C943E000C945B000C945B000C945B001D
S11300100C945B000C945B000C945B000C945B00F0
S11300200C945B000C945B000C945B000C945B00E0
S11300300C945B000C945B000C945B000C945B00D0
S11300400C945B000C945B000C945B000C945B00C0
S11300500C945B000C945B000C945B000C945B00B0
S11300600C945B000C945B000C945B000C945B00A0
S11300700C945B000C945B000C945B0011241FBE79
S1130080CFEFD0E1DEBFCDBF11E0A0E0B1E0E0EE04
S1130090F7E002C005900D92A637B107D9F729E021
S11300A0A6E7B1E001C01D92A138B207E1F70E94B2
S11300B097030C94EE030C940000109888230CF41E
S11300C0109A119886FD119A129885FD129A139828
S11300D084FD139A149A82E08A95F1F700C014986B
S11300E082E08A95F1F700C00895CF93C82F159A3E
S11300F014980E945D008C2F8295807F0E945D0081
S1130100CF910895CF93DF93EC018881882351F038
S113011021960E94750085E88A95F1F7000089917F
S11301208111F7CFDF91CF910895CF93C82F159800
S113013014980E945D008AE18A95F1F700C08C2F23
S11301408295807F0E945D008FE097E20197F1F72E
S113015000C00000CF91089581B18F6381B92FEF62
S113016080E792E0215080409040E1F700C0000019
S11301701598149880E30E945D008FE79EE3019731
S1130180F1F700C0000080E30E945D008FE891E079
S11301900197F1F700C0000080E30E945D008FE842
S11301A091E00197F1F700C0000088E20E945D0031
S11301B095E89A95F1F7000088E20E94950025E8F9
S11301C02A95F1F7000088E00E94950085E88A9559
S11301D0F1F7000081E00E9495008FE697E1019716
S11301E0F1F700C0000086E00E9495009AE69A9517
S11301F0F1F700C08CE00E94950025E82A95F1F7FC
S1130200000008951092C50083E38093C400E1ECDC
S1130210F0E088E1808386E08093C200808180687A
S113022080830895E0ECF0E0908195FFFDCF80930A
S1130230C60008952C98880F991F880F991F9069FC
S11302409EBD0DB407FEFDCF8EBD0DB407FEFDCFE0
S11302502C9A0895CF93DF9300D000D0CDB7DEB7AA
S1130260611571058105910581F41C821B828B81C6
S11302709C81892BF1F48B819C8101969C838B83D7
S11302808B819C81892BB9F314C061307105810580
S1130290910579F41A82198289819A81029748F426
S11302A089819A8101969A83898389819A810297A7
S11302B0B8F30F900F900F900F90DF91CF910895A6
S11302C0CF92DF92EF92FF920F931F93CF93DF931E
S11302D06B017C01EA018A010C591F4F89919991A4
S11302E00E941A01C701B6010E942A01C017D10752
S11302F0A9F7DF91CF911F910F91FF90EF90DF90BD
S1130300CF900895CF93C6E96091000170910101E7
S1130310809102019091030144E051E00E94600148
S1130320C15091F7CF910895579AE0EBF0E08081A6
S113033083648083E1EBF0E08081896080838FE1D6
S11303408093B300089552985A9AE1E8F0E08081CE
S113035081608083109285001092840008958091BA
S1130360840090918500883A9F4008F46AC01092F6
S1130370850010928400E0917D09F0917E0989B195
S1130380EA58FE4F82FB882780F98083E0917D093B
S1130390F0917E09EA58FE4F80818130C1F5809149
S11303A080098F5F8093800980918009893089F565
S11303B080916E0981112DC0E0917A09F0917B0939
S11303C080917D0990917E090196EE0FFF1FEA5BF3
S11303D0F64F9183808380917A0990917B094397AA
S11303E060F081E080936E0980937C0910927B0910
S11303F010927A09109280090CC080917A09909128
S11304007B09019690937B0980937A0902C010922C
S1130410800980917D0990917E098E3C974050F42B
S113042080917D0990917E09019690937E09809335
S11304307D09089510927E0910927D0981E08093D0
S11304406F0908953F924F925F926F927F928F92BD
S11304509F92AF92BF92CF92DF92EF92FF920F934F
S11304601F93CF93DF93CDB7DEB7EB970FB6F89416
S1130470DEBF0FBECDBF70906F09772009F438C17D
S113048070907C09772009F433C110927F09E091C0
S11304907A09F0917B09EE0FFF1FEA5BF64F40806B
S11304A0518094E1FE017596DF01292F1D922A9552
S11304B0E9F788E07C96DF01282F1D922A95E9F759
S11304C0F097DF011D929A95E9F7B896DF011D9226
S11304D08A95E9F70F2EF0E7AF2EF9E0BF2EF02D45
S11304E0F201E658FE4F6F01E12CF12C0F2EF3E0E0
S11304F06F2EF02D312C1BAE860104501109262DD0
S1130500332D9E2C8F2CD701AA0FBB1F41E050E046
S11305104C0F5D1FA40FB51FF80181918F01082EA8
S1130520000C990B6BADAC01022E02C0440F551F99
S11305300A94E2F7460F4BAF492D582D6D917C91EB
S11305401197680F791F11967C936E936D917C912E
S113055011976170772711967C936E93F901EE0FD2
S1130560FF1F61E070E06C0F7D1FE60FF71F60A5B1
S113057071A5860F971F91A780A780A591A581706B
S1130580992791A780A72150310930F68BADD50169
S11305908D935D01F6018081082E000C990B440FA8
S11305A0551FE1E0F0E0EC0FFD1FE40FF51F958B04
S11305B0848BFFEFEF1AFF0A25E0C20ED11C3AE04C
S11305C0E316F10409F097CFD201A855BE4F83E09A
S11305D090E02D91022E000C330BFC01EE0FFF1F57
S11305E041E050E04C0F5D1FE40FF51F31AB20AB31
S11305F0019778F7F201EA58FE4F86A9082E000CFD
S1130600990B9AAF89AF00E010E00F2EF3E0DF2ED4
S1130610F02DE12CFF24F39424C0FB01408151818F
S11306202D913C9111974217530711F0F0927F09D5
S1130630FC01EE0FFF1F21E030E02C0F3D1FE20F05
S1130640F31F40A951A920A531A54217530711F062
S1130650F0927F09019708F70F5F1F4F0A301105C9
S113066079F08D2D9E2DD801AA0FBB1F41E050E0DB
S11306704C0F5D1FA40FB51FBD016C5E7F4FCDCF26
S113068089AD9AAD892B21F480917F09882351F19A
S113069080917A0990917B094297A0F480917A091C
S11306A090917B099C012F5F3F4F30937B092093EE
S11306B07A09880F991FFC01EA5BF64F80819181CA
S11306C0712C16C010926F0910926E0910927C0959
S11306D010927B0910927A0910927E0910927D097A
S11306E0712C06C010926F0910926E0910927C0949
S11306F0872DEB960FB6F894DEBF0FBECDBFDF910A
S1130700CF911F910F91FF90EF90DF90CF90BF900A
S1130710AF909F908F907F906F905F904F903F909D
S113072008958A3010F4805D0895895C08950E94CC
S1130730AC000E9402010E9494010E94A30184B1B2
S1130740806B84B98DB581608DBD8CB580658CBDA1
S11307502C9A81E00E94950088E691E00E94820034
S11307600F2EF0E7CF2EF9E0DF2EF02D0F2EFAE753
S1130770EF2EF9E0FF2EF02D0E94AF010E9422021D
S11307808823D1F381E00E949500E6018601F801F7
S113079081918F010E9491030E947500F5E8FA95FA
S11307A0F1F700000E151F0591F78AE00E9412016F
S11307B089910E9491030E941201CE15DF05C1F7B1
S11307C08DE00E9412010E94820110927B09109216
S11307D07A0910927E0910927D09CECFF894FFCF4A
S11307E00100000040027F02BC02F6022C035E03FB
S11307F08A03AF03CE03E603F603FE03FE03F60308
S1130800E603CE03AF038A035E032C03F602BC02A5
S11308107F0240020002BF01800143010901D300AD
S1130820A100750050003100190009000100010009
S113083009001900310050007500A100D30009011E
S113084043018001BF01FF01526561647920746F27
S1090850205363616E00F9
S9030000FC
