S0120000524652656365697665722E7372656345
S11300000C943E000C94AA010C945B000C945B00CD
S11300100C945B000C945B000C945B000C945B00F0
S11300200C945B000C945B000C945B000C945B00E0
S11300300C945B000C945B000C945B000C945B00D0
S11300400C945B000C945B000C945B000C945B00C0
S11300500C945B000C945B000C945B000C945B00B0
S11300600C945B000C945B000C945B000C945B00A0
S11300700C945B000C945B000C945B0011241FBE79
S1130080CFEFD0E1DEBFCDBF11E0A0E0B1E0EEE9FB
S1130090F6E002C005900D92A637B107D9F723E028
S11300A0A6E7B1E001C01D92A232B207E1F70E94B7
S11300B0ED020C944D030C940000109888230CF46A
S11300C0109A119886FD119A129885FD129A139828
S11300D084FD139A149A82E08A95F1F700C014986B
S11300E082E08A95F1F700C00895CF93C82F159A3E
S11300F014980E945D008C2F8295807F0E945D0081
S1130100CF910895CF93DF93EC018881882351F038
S113011021960E94750085E88A95F1F7000089917F
S11301208111F7CFDF91CF910895CF93C82F159800
S113013014980E945D008AE18A95F1F700C08C2F23
S11301408295807F0E945D008FE097E20197F1F72E
S113015000C00000CF91089581B18F6381B92FEF62
S113016080E792E0215080409040E1F700C0000019
S11301701598149880E30E945D008FE79EE3019731
S1130180F1F700C0000080E30E945D008FE891E079
S11301900197F1F700C0000080E30E945D008FE842
S11301A091E00197F1F700C0000088E20E945D0031
S11301B095E89A95F1F7000088E20E94950025E8F9
S11301C02A95F1F7000088E00E94950085E88A9559
S11301D0F1F7000081E00E9495008FE697E1019716
S11301E0F1F700C0000086E00E9495009AE69A9517
S11301F0F1F700C08CE00E94950025E82A95F1F7FC
S1130200000008951092C50083E38093C400E1ECDC
S1130210F0E088E1808386E08093C200808180687A
S113022080830895E0ECF0E0908195FFFDCF80930A
S1130230C60008952C98880F991F880F991F9069FC
S11302409EBD0DB407FEFDCF8EBD0DB407FEFDCFE0
S11302502C9A0895CF93DF9300D000D0CDB7DEB7AA
S1130260611571058105910581F41C821B828B81C6
S11302709C81892BF1F48B819C8101969C838B83D7
S11302808B819C81892BB9F314C061307105810580
S1130290910579F41A82198289819A81029748F426
S11302A089819A8101969A83898389819A810297A7
S11302B0B8F30F900F900F900F90DF91CF910895A6
S11302C0CF92DF92EF92FF920F931F93CF93DF931E
S11302D06B017C01EA018A010C591F4F89919991A4
S11302E00E941A01C701B6010E942A01C017D10752
S11302F0A9F7DF91CF911F910F91FF90EF90DF90BD
S1130300CF900895CF93C6E96091000170910101E7
S1130310809102019091030144E051E00E94600148
S1130320C15091F7CF910895579AE0EBF0E08081A6
S113033083648083E1EBF0E08081896080838FE1D6
S11303408093B300089552985A9A81E08DBB8CBB78
S113035085BF08951F920F920FB60F9211242F9309
S11303608F939F93EF93FF9385EC93E00197F1F7BD
S113037000C00000E0911E03F0911F0389B1EA5808
S1130380FE4F82FB882780F98083E0911E03F09161
S11303901F03EA58FE4F80818130C1F5809121030B
S11303A08F5F8093210380912103893089F58091A7
S11303B00E0381112DC0E0911A03F0911B0380916B
S11303C01E0390911F030196EE0FFF1FEA5FFC4F7F
S11303D09183808380911A0390911B03049760F0AA
S11303E081E080930E0380931C0310921B031092F0
S11303F01A03109221030CC080911A0390911B03DD
S1130400019690931B0380931A0302C01092210358
S113041080911E0390911F038E38914050F4809177
S11304201E0390911F03019690931F0380931E0354
S113043007C010921F0310921E0381E080930F03E4
S113044081E08CBBFF91EF919F918F912F910F9041
S11304500FBE0F901F9018959F92AF92BF92CF92AC
S1130460DF92EF92FF920F931F93CF93DF93CDB759
S1130470DEB72F970FB6F894DEBF0FBECDBF8091C5
S11304800F03882309F491C080911C03882309F485
S11304908CC0F894E0911A03F0911B03EE0FFF1F38
S11304A0EA5FFC4FC080D1801B861C861D861E8699
S11304B0FE0131969AE0DF011D929A95E9F760E119
S11304C073E0D601A558BE4F0F2EFAE1EF2EF3E0EC
S11304D0FF2EF02D0F2EF3E0AF2EF02DB12C06E6FB
S11304E01EEF06571140992493941F86FD013597FA
S11304F04A2D5B2D21919F85022E000C330B042E77
S113050002C0220F331F0A94E2F7290F2F874150AC
S1130510510980F7A801460F571F9F85FB0191934E
S1130520BF019C91E1E0F0E0EC0FFD1FE40FF51F2B
S1130530908320819F8591702913909220031596B2
S11305406E157F0591F6FE013F96D601A855BE4F64
S1130550AE01455F5F4F9D912291920F9083E41706
S1130560F507C9F7F601EA58FE4F96A99923B9F0A1
S11305709C859923A1F080911A0390911B039C01FF
S11305802F5F3F4F30931B0320931A03880F991F4B
S1130590FC01EA5FFC4F8081918180E006C01092EB
S11305A00F0310920E0310921C032F960FB6F894AB
S11305B0DEBF0FBECDBFDF91CF911F910F91FF9092
S11305C0EF90DF90CF90BF90AF909F9008958A30C6
S11305D010F4805D0895895C08950E94AC000E9427
S11305E002010E9494010E94A30184B1806B84B92A
S11305F08DB581608DBD8CB580658CBD2C9A81E0F4
S11306000E94950088E691E00E94820078940F2E63
S1130610F0E1CF2EF3E0DF2EF02D0F2EFAE1EF2ED6
S1130620F3E0FF2EF02D0E942C028823E1F381E0F9
S11306300E949500E6018601F80181918F010E94D4
S1130640E7020E947500F5E8FA95F1F700000E152F
S11306501F0591F78AE00E94120189910E94E70226
S11306600E941201CE15DF05C1F78DE00E94120130
S11306700E9482012FEF89E698E12150804090404A
S1130680E1F700C0000010921B0310921A031092AD
S11106901F0310921E037894C6CFF894FFCF78
S113069E0100000040027F02BC02F6022C035E033E
S11306AE8A03AF03CE03E603F603FE03FE03F6034B
S11306BEE603CE03AF038A035E032C03F602BC02E9
S11306CE7F0240020002BF01800143010901D300F1
S11306DEA10075005000310019000900010001004D
S11306EE09001900310050007500A100D300090162
S11306FE43018001BF01FF01526561647920746F6B
S109070E205363616E003C
S9030000FC
