:100000000C943E000C945B000C945B000C945B0021
:100010000C945B000C945B000C945B000C945B00F4
:100020000C945B000C945B000C945B000C945B00E4
:100030000C945B000C945B000C945B000C945B00D4
:100040000C945B000C945B000C945B000C945B00C4
:100050000C9432010C945B000C945B000C945B00DC
:100060000C945B000C945B000C945B000C945B00A4
:100070000C945B000C945B000C945B0011241FBE7D
:10008000CFEFD8E0DEBFCDBF11E0A0E0B1E0E2E20B
:10009000F3E002C005900D92AE30B107D9F721E030
:1000A000AEE0B1E001C01D92A132B207E1F70E94BB
:1000B00073010C948F010C9400005F9888230CF45A
:1000C0005F9A5E9886FD5E9A5D9885FD5D9A5C9864
:1000D00084FD5C9A5B9A82E08A95F1F700C05B9898
:1000E00082E08A95F1F700C00895CF93C82F5A9AFD
:1000F0005B980E945D008C2F8295807F0E945D003E
:10010000CF9108950F931F93CF93DF9300D0CDB776
:10011000DEB78C011A821982E981FA81E80FF91F92
:1001200080818823C1F0E981FA81E00FF11F80818D
:100130000E94750029813A812F5F3F4F3A832983BE
:1001400085E88A95F1F70000E981FA81E00FF11F57
:1001500080818111E8CF0F900F90DF91CF911F9197
:100160000F910895CF93C82F5A985B980E945D0015
:100170008C2F8295807F0E945D00CF9108952FEF94
:1001800080E792E0215080409040E1F700C00000FD
:100190005A985B9880E30E945D008FE79EE3019789
:1001A000F1F700C0000080E30E945D008FE891E05D
:1001B0000197F1F700C0000080E30E945D008FE826
:1001C00091E00197F1F700C0000088E20E945D0015
:1001D00095E89A95F1F7000088E20E94B20025E8C0
:1001E0002A95F1F7000088E00E94B20085E88A9520
:1001F000F1F7000081E00E94B2008FE697E10197DD
:10020000F1F700C0000086E00E94B2009AE69A95DD
:10021000F1F700C08CE00E94B20025E82A95F1F7C2
:10022000000008951092C50083E38093C400E1ECC0
:10023000F0E088E1808386E08093C200808180685E
:1002400080830895E0ECF0E080818823ECF78091D2
:10025000C6000895E0ECF0E0908195FFFDCF80931B
:10026000C60008951F920F920FB60F9211242F937C
:100270003F934F935F936F937F938F939F93AF932E
:10028000BF93EF93FF930E9422019091200191115F
:1002900017C0AEE0B1E05196EC91519791E09E0FFE
:1002A00051969C935197F0E0E25FFE4F8083519608
:1002B0009C915197903121F4FD01118A91E0928B2C
:1002C0000E942A01FF91EF91BF91AF919F918F9171
:1002D0007F916F915F914F913F912F910F900FBE42
:1002E0000F901F9018958AB18C6F8AB90E94BF0039
:1002F0000E941201789480E091E00E948200CEE09A
:10030000D1E09A899923E9F380E80E94B200CE01F6
:100310000E9482008AE00E942A011A8AF2CFF89491
:02032000FFCF0D
:0E03220068656C6C6F20776F726C6421000050
:00000001FF
