S0120000524652656365697665722E7372656345
S11300000C943E000C94AA010C945B000C945B00CD
S11300100C945B000C945B000C945B000C945B00F0
S11300200C945B000C945B000C945B000C945B00E0
S11300300C945B000C945B000C945B000C945B00D0
S11300400C945B000C945B000C945B000C945B00C0
S11300500C945B000C945B000C945B000C945B00B0
S11300600C945B000C945B000C945B000C945B00A0
S11300700C945B000C945B000C945B0011241FBE79
S1130080CFEFD0E1DEBFCDBF11E0A0E0B1E0E6E408
S1130090F7E002C005900D92A439B107D9F723E027
S11300A0A4E9B1E001C01D92A034B207E1F70E94B7
S11300B041030C94A1030C940000109888230CF4C1
S11300C0109A119886FD119A129885FD129A139828
S11300D084FD139A149A82E08A95F1F700C014986B
S11300E082E08A95F1F700C00895CF93C82F159A3E
S11300F014980E945D008C2F8295807F0E945D0081
S1130100CF910895CF93DF93EC018881882351F038
S113011021960E94750085E88A95F1F7000089917F
S11301208111F7CFDF91CF910895CF93C82F159800
S113013014980E945D008AE18A95F1F700C08C2F23
S11301408295807F0E945D008FE097E20197F1F72E
S113015000C00000CF91089581B18F6381B92FEF62
S113016080E792E0215080409040E1F700C0000019
S11301701598149880E30E945D008FE79EE3019731
S1130180F1F700C0000080E30E945D008FE891E079
S11301900197F1F700C0000080E30E945D008FE842
S11301A091E00197F1F700C0000088E20E945D0031
S11301B095E89A95F1F7000088E20E94950025E8F9
S11301C02A95F1F7000088E00E94950085E88A9559
S11301D0F1F7000081E00E9495008FE697E1019716
S11301E0F1F700C0000086E00E9495009AE69A9517
S11301F0F1F700C08CE00E94950025E82A95F1F7FC
S1130200000008951092C50083E38093C400E1ECDC
S1130210F0E088E1808386E08093C200808180687A
S113022080830895E0ECF0E0908195FFFDCF80930A
S1130230C60008952C98880F991F880F991F9069FC
S11302409EBD0DB407FEFDCF8EBD0DB407FEFDCFE0
S11302502C9A0895CF93DF9300D000D0CDB7DEB7AA
S1130260611571058105910581F41C821B828B81C6
S11302709C81892BF1F48B819C8101969C838B83D7
S11302808B819C81892BB9F314C061307105810580
S1130290910579F41A82198289819A81029748F426
S11302A089819A8101969A83898389819A810297A7
S11302B0B8F30F900F900F900F90DF91CF910895A6
S11302C0CF92DF92EF92FF920F931F93CF93DF931E
S11302D06B017C01EA018A010C591F4F89919991A4
S11302E00E941A01C701B6010E942A01C017D10752
S11302F0A9F7DF91CF911F910F91FF90EF90DF90BD
S1130300CF900895CF93C6E960911E0170911F01AB
S1130310809120019091210142E251E00E9460010C
S1130320C15091F7CF910895579AE0EBF0E08081A6
S113033083648083E1EBF0E08081896080838FE1D6
S11303408093B300089552985A9A81E08DBB8CBB78
S113035085BF08951F920F920FB60F9211242F9309
S11303608F939F93EF93FF9385EC93E00197F1F7BD
S113037000C00000E0913C03F0913D0389B1EC56CC
S1130380FE4F82FB882780F98083E0913C03F09143
S11303903D03EC56FE4F80818130C1F580913F03CF
S11303A08F5F80933F0380913F03893089F580916B
S11303B02C0381112DC0E0913803F0913903809111
S11303C03C0390913D030196EE0FFF1FEC5DFC4F43
S11303D0918380838091380390913903049760F06E
S11303E081E080932C0380933A0310923903109296
S11303F0380310923F030CC0809138039091390365
S11304000196909339038093380302C010923F03FE
S113041080913C0390913D038E38914050F480913B
S11304203C0390913D03019690933D0380933C03DC
S113043007C010923D0310923C0381E080932D038A
S113044081E08CBBFF91EF919F918F912F910F9041
S11304500FBE0F901F9018958A3010F4805D089598
S1130460895C0895CF92DF92EF92FF920F931F93CE
S1130470CF93DF93CDB7DEB72A970FB6F894DEBFDC
S11304800FBECDBFFE0131968AE0DF011D928A9531
S1130490E9F70EE213E07F010F2EF8E3CF2EF3E02D
S11304A0DF2EF02DF80181918F010E942C02D701DB
S11304B08D937D010C151D05A9F70AC091918D91AD
S11304C0981317C0E217F307C9F7862F972F1AC09E
S11304D0198140E051E060E070E09E01255F3F4FEC
S11304E0FA018081181305C0FE013296DA011196D3
S11304F0E5CF6F5F7F4F465F5F4F6330710581F7D4
S11305008FEF9FEF2A960FB6F894DEBF0FBECDBFD4
S1130510DF91CF911F910F91FF90EF90DF90CF90DB
S113052008958F929F92BF92CF92DF92EF92FF92A3
S11305300F931F93CF93DF93CDB7DEB72D970FB6ED
S1130540F894DEBF0FBECDBF10912D03112309F423
S113055085C010913A03112309F480C0F894E09106
S11305603803F0913903EE0FFF1FEC5DFC4FA081BF
S1130570B1819E012F5F3F4F8AE0F90111928A9564
S1130580E9F76EE273E0A756BE4F0F2EF8E3EF2EA5
S1130590F3E0FF2EF02D0F2EF3E0CF2EF02DD12C13
S11305A086E69EEF84599140BB24B3941D86FD01D9
S11305B035974C2D5D2D21910D85022E000C330BAA
S11305C0042E02C0220F331F0A94E2F7200F2D8756
S11305D04150510980F74C01860E971E2D85FB0171
S11305E02193BF012C91E1E0F0E0EC0FFD1FE80D39
S11305F0F91D208330812D8521703213B0923E0382
S113060015966E157F0591F60E9432029C878B87A2
S11306108B859C859923D4F4809138039091390378
S11306200397D8F480913803909139039C012F5F8C
S11306303F4F3093390320933803880F991FFC01EF
S1130640EC5DFC4F8081918110E008C010922D0375
S113065010922C0310923A0301C010E0812F2D96C2
S11306600FB6F894DEBF0FBECDBFDF91CF911F91BF
S11306700F91FF90EF90DF90CF90BF909F908F905D
S113068008950E94AC000E9402010E9494010E94FD
S1130690A30184B1806B84B98DB581608DBD8CB5A7
S11306A080658CBD2C9A81E00E94950086E891E0DB
S11306B00E94820078940F2EFEE2CF2EF3E0DF2E0C
S11306C0F02D0F2EF8E3EF2EF3E0FF2EF02D0E9415
S11306D091028823E1F381E00E949500E6018601FE
S11306E0F80181918F010E942C020E947500F5E8A7
S11306F0FA95F1F700000E151F0591F78AE00E94A4
S1130700120189910E942C020E941201CE15DF056C
S1130710C1F78DE00E9412010E9482012FEF89E649
S113072098E1215080409040E1F700C00000109211
S113073039031092380310923D0310923C037894CD
S1090740C6CFF894FFCFC0
S11307463243303041433639334533313030333731
S113075644393344444646454646464145360100F7
S1130766000040027F02BC02F6022C035E038A03E9
S1130776AF03CE03E603F603FE03FE03F603E60326
S1130786CE03AF038A035E032C03F602BC027F0288
S113079640020002BF01800143010901D300A10008
S11307A6750050003100190009000100010009001C
S11307B61900310050007500A100D300090143015E
S11307C68001BF01FF01526561647920746F205373
S10707D663616E00E9
S9030000FC
