S0120000524652656365697665722E7372656345
S11300000C943E000C9408010C945B000C945B006F
S11300100C945B000C945B000C945B000C945B00F0
S11300200C945B000C945B000C945B000C945B00E0
S11300300C945B000C945B000C945B000C945B00D0
S11300400C945B000C945B000C945B000C945B00C0
S11300500C945B000C945B000C945B000C945B00B0
S11300600C945B000C945B000C945B000C945B00A0
S11300700C945B000C945B000C945B0011241FBE79
S1130080CFEFD0E1DEBFCDBF11E0A0E0B1E0E8E109
S1130090F3E002C005900D92A030B107D9F724E037
S11300A0A0E0B1E001C01D92AE3EB207E1F70E94AC
S11300B06E010C948A010C940000109888230CF4AF
S11300C0109A119886FD119A129885FD129A139828
S11300D084FD139A149A82E08A95F1F700C014986B
S11300E082E08A95F1F700C00895CF93C82F159840
S11300F014980E945D008AE18A95F1F700C08C2F64
S11301008295807F0E945D008FE097E20197F1F76E
S113011000C00000CF91089581B18F6381B92FEFA2
S113012080E792E0215080409040E1F700C0000059
S11301301598149880E30E945D008FE79EE3019771
S1130140F1F700C0000080E30E945D008FE891E0B9
S11301500197F1F700C0000080E30E945D008FE882
S113016091E00197F1F700C0000088E20E945D0071
S113017095E89A95F1F7000088E20E94750025E859
S11301802A95F1F7000088E00E94750085E88A95B9
S1130190F1F7000081E00E9475008FE697E1019776
S11301A0F1F700C0000086E00E9475009AE69A9577
S11301B0F1F700C08CE00E94750025E82A95F1F75C
S11301C0000008951092C50083E38093C400E1EC1D
S11301D0F0E088E1808386E08093C20080818068BB
S11301E080830895579AE0EBF0E0808183648083F4
S11301F0E1EBF0E08081896080838FE18093B3003C
S1130200089552985A9A81E08DBB8CBB85BF08959E
S11302101F920F920FB60F9211242F933F938F9337
S11302209F93EF93FF938BEB92E00197F1F700C05C
S11302300000E0910201F091030189B1EE0FFF1F6C
S1130240EC5FFE4F82FB882780F980831182E09166
S11302500201F0910301EE0FFF1FEC5FFE4F80815E
S113026091810197A9F4E0910201F0910301EE0F4D
S1130270FF1FEC5FFE4F209100013091010180814E
S11302809181820F931F909301018093000104C018
S113029010920101109200018091020190910301DA
S11302A0833F914054F4809102019091030101969F
S11302B0909303018093020104C0109203011092F1
S11302C0020181E08CBBFF91EF919F918F913F914F
S11302D02F910F900FBE0F901F9018950E948C00C5
S11302E00E94E2000E94F2000E94010184B1806B2E
S11302F084B98DB581608DBD8CB580658CBD2C9A1B
S113030078948091020190910301833F9140C9F751
S10B0310F894F7CFF894FFCF35
S9030000FC
