:100000000C943E000C9450000C9450000C94500042
:100010000C9450000C9450000C9450000C94500020
:100020000C9450000C9450000C9450000C94500010
:100030000C9450000C9450000C9450000C94500000
:100040000C9450000C9450000C9450000C945000F0
:100050000C9426010C9450000C9450000C94500009
:100060000C9450000C9450000C9450000C945000D0
:100070000C9450000C9450000C94500011241FBE9E
:10008000CFEFD8E0DEBFCDBF21E0A0E0B1E001C0FE
:100090001D92A331B207E1F70E9467010C947C0125
:1000A0000C9400005F9888230CF45F9A5E9886FD9C
:1000B0005E9A5D9885FD5D9A5C9884FD5C9A5B9A7A
:1000C00082E08A95F1F700C05B9882E08A95F1F7AB
:1000D00000C00895CF93C82F5A9A5B980E9452008F
:1000E0008C2F8295807F0E945200CF9108950F93AC
:1000F0001F93CF93DF9300D0CDB7DEB78C011A8268
:100100001982E981FA81E80FF91F80818823A1F023
:10011000E981FA81E00FF11F80810E946A00298144
:100120003A812F5F3F4F3A832983E981FA81E00FBB
:10013000F11F80818111ECCF0F900F90DF91CF9153
:100140001F910F910895CF93C82F5A985B980E94E2
:1001500052008C2F8295807F0E945200CF9108958B
:100160008AB18C6F8AB92FEF80E792E021508040EE
:100170009040E1F700C000005A985B9880E30E942D
:1001800052008FE79EE30197F1F700C0000080E383
:100190000E9452008FE891E00197F1F700C0000043
:1001A00080E30E9452008FE891E00197F1F700C0D0
:1001B000000088E20E94520095E89A95F1F700004D
:1001C00088E20E94A30025E82A95F1F7000088E064
:1001D0000E94A30085E88A95F1F7000081E00E9463
:1001E000A3008FE697E10197F1F700C0000086E0D9
:1001F0000E94A3009AE69A95F1F700C08CE00E9455
:10020000A30025E82A95F1F7000008951092C50093
:1002100083E38093C400E1ECF0E088E1808386E032
:100220008093C2008081806880830895E0ECF0E0D4
:1002300080818823ECF78091C6000895E0ECF0E01F
:10024000908195FFFDCF8093C60008951F920F9275
:100250000FB60F9211242F933F934F935F936F9399
:100260007F938F939F93AF93BF93EF93FF930E94DE
:10027000160190911201911117C0A0E0B1E05196C2
:10028000EC91519791E09E0F51969C935197F0E01D
:10029000E050FF4F808351969C915197903121F40B
:1002A000FD01118A91E0928B0E941E01FF91EF9156
:1002B000BF91AF919F918F917F916F915F914F917E
:1002C0003F912F910F900FBE0F901F9018950E9495
:1002D000B0000E9406017894C0E0D1E09A89992389
:1002E000E9F380E80E94A300CE010E9477008AE033
:0C02F0000E941E011A8AF2CFF894FFCF82
:00000001FF
