:100000000C943E000C9408010C945B000C945B0073
:100010000C945B000C945B000C945B000C945B00F4
:100020000C945B000C945B000C945B000C945B00E4
:100030000C945B000C945B000C945B000C945B00D4
:100040000C945B000C945B000C945B000C945B00C4
:100050000C945B000C945B000C945B000C945B00B4
:100060000C945B000C945B000C945B000C945B00A4
:100070000C945B000C945B000C945B0011241FBE7D
:10008000CFEFD0E1DEBFCDBF11E0A0E0B1E0E8E707
:10009000F3E002C005900D92A030B107D9F722E03D
:1000A000A0E0B1E001C01D92AD3FB207E1F70E94B0
:1000B000A4010C94BA010C940000109888230CF44D
:1000C000109A119886FD119A129885FD129A13982C
:1000D00084FD139A149A82E08A95F1F700C014986F
:1000E00082E08A95F1F700C00895CF93C82F159844
:1000F00014980E945D008AE18A95F1F700C08C2F68
:100100008295807F0E945D008FE097E20197F1F772
:1001100000C00000CF91089581B18F6381B92FEFA6
:1001200080E792E0215080409040E1F700C000005D
:100130001598149880E30E945D008FE79EE3019775
:10014000F1F700C0000080E30E945D008FE891E0BD
:100150000197F1F700C0000080E30E945D008FE886
:1001600091E00197F1F700C0000088E20E945D0075
:1001700095E89A95F1F7000088E20E94750025E85D
:100180002A95F1F7000088E00E94750085E88A95BD
:10019000F1F7000081E00E9475008FE697E101977A
:1001A000F1F700C0000086E00E9475009AE69A957B
:1001B000F1F700C08CE00E94750025E82A95F1F760
:1001C000000008951092C50083E38093C400E1EC21
:1001D000F0E088E1808386E08093C20080818068BF
:1001E00080830895579AE0EBF0E0808183648083F8
:1001F000E1EBF0E08081896080838FE18093B30040
:10020000089552985A9A81E08DBB8CBB85BF0895A2
:100210001F920F920FB60F9211242F938F939F93DB
:10022000EF93FF938BEB92E00197F1F700C0000092
:10023000E0910201F091030189B1EC5FFE4F82FB76
:10024000882780F98083E0910201F0910301EC5F3F
:10025000FE4F80818130A1F4E0910201F091030111
:10026000EC5FFE4F20818091000190910101820F8F
:10027000911D9093010180930001089731F015C002
:10028000109201011092000110C08091FC028111B6
:100290000CC0809102019091030101979093FB02A1
:1002A0008093FA0281E08093FC0280910201909198
:1002B0000301833F914054F4809102019091030126
:1002C0000196909303018093020106C010920301EE
:1002D000109202011092FC0281E08CBBFF91EF9121
:1002E0009F918F912F910F900FBE0F901F90189597
:1002F0008091020190910301823F914021F50DC050
:100300009093F9028093F802F89408952191820F56
:10031000911DE417F507D1F7F3CF4091FA02509100
:10032000FB02FA01EC5FFE4F2081E8EFF2E08081F2
:100330009181820F911D91838083FA01EB5FFE4FC3
:10034000445C5E4FE3CF08950E948C000E94E2005F
:100350000E94F2000E94010184B1806B84B98DB5C6
:1003600081608DBD8CB580658CBD2C9A78940E947F
:080370007801FDCFF894FFCFE6
:00000001FF
