S01100004D61696E426F6172642E73726563A6
S11300000C943E000C945B000C945B000C945B001D
S11300100C945B000C945B000C945B000C945B00F0
S11300200C945B000C945B000C945B000C945B00E0
S11300300C945B000C945B000C945B000C945B00D0
S11300400C945B000C945B000C945B000C945B00C0
S11300500C9418010C945B000C945B000C945B00F2
S11300600C945B000C945B000C945B000C945B00A0
S11300700C945B000C945B000C945B0011241FBE79
S1130080CFEFD0E1DEBFCDBF11E0A0E0B1E0EEE103
S1130090F3E002C005900D92AC30B107D9F721E02E
S11300A0ACE0B1E001C01D92AF31B207E1F70E94AC
S11300B059010C948D010C940000109888230CF4C1
S11300C0109A119886FD119A129885FD129A139828
S11300D084FD139A149A82E08A95F1F700C014986B
S11300E082E08A95F1F700C00895CF93C82F159A3E
S11300F014980E945D008C2F8295807F0E945D0081
S1130100CF910895CF93DF93EC018881882351F038
S113011021960E94750085E88A95F1F7000089917F
S11301208111F7CFDF91CF910895CF93C82F159800
S113013014980E945D008C2F8295807F0E945D0040
S1130140CF91089581B18F6381B92FEF80E792E059
S1130150215080409040E1F700C0000015981498A9
S113016080E30E945D008FE79EE30197F1F700C0F2
S1130170000080E30E945D008FE891E00197F1F7B1
S113018000C0000080E30E945D008FE891E00197C9
S1130190F1F700C0000088E20E945D0095E89A959E
S11301A0F1F7000088E20E94950025E82A95F1F70E
S11301B0000088E00E94950085E88A95F1F7000028
S11301C081E00E9495008FE697E10197F1F700C066
S11301D0000086E00E9495009AE69A95F1F700C027
S11301E08CE00E94950025E82A95F1F70000089517
S11301F01092C50083E38093C400E1ECF0E088E151
S1130200808386E08093C200808180688083089523
S1130210E0ECF0E080818823ECF78091C60008953B
S1130220E0ECF0E0908195FFFDCF8093C600089547
S11302301F920F920FB60F9211242F933F934F9357
S11302405F936F937F938F939F93AF93BF93EF933A
S1130250FF930E94080190911E01911117C0ACE018
S1130260B1E05196EC91519791E09E0F51969C9379
S11302705197F0E0E45FFE4F808351969C91519733
S1130280903121F4FD01118A91E0928B0E941001BA
S1130290FF91EF91BF91AF919F918F917F916F915A
S11302A05F914F913F912F910F900FBE0F901F9030
S11302B018950E94A2000E94F800789480E091E0D2
S11302C00E9482000CE011E0EE24E394F12CF8018A
S11302D082898823E1F380EC0E949500CE2DDF2DE6
S11302E0FE01E45FFE4F80810E94750085E88A95D7
S11302F0F1F700002196CB30D10591F78AE00E94F6
S113030010019FEFE1EEF4E09150E040F040E1F79E
S111031000C00000F801128ADACFF894FFCF83
S10F031E5363616E20612074616700006D
S9030000FC
