S01100004D61696E426F6172642E73726563A6
S11300000C943E000C945B000C945B000C945B001D
S11300100C945B000C945B000C945B000C945B00F0
S11300200C945B000C945B000C945B000C945B00E0
S11300300C945B000C945B000C945B000C945B00D0
S11300400C945B000C945B000C945B000C945B00C0
S11300500C9439010C945B000C945B000C945B00D1
S11300600C945B000C945B000C945B000C945B00A0
S11300700C94C6020C945B000C945B0011241FBE0C
S1130080CFEFD0E1DEBFCDBF12E0A0E0B1E0EAEEF9
S1130090F7E002C005900D92AA37B107D9F725E021
S11300A0AAE7B2E001C01D92A739B207E1F70E94A6
S11300B0DD030C94F3030C940000109888230CF4D3
S11300C0109A119886FD119A129885FD129A139828
S11300D084FD139A149A82E08A95F1F700C014986B
S11300E082E08A95F1F700C00895CF93C82F159A3E
S11300F014980E945D008C2F8295807F0E945D0081
S1130100CF910895CF93DF93EC018881882351F038
S113011021960E94750085E88A95F1F7000089917F
S11301208111F7CFDF91CF910895CF93C82F159800
S113013014980E945D008AE18A95F1F700C08C2F23
S11301408295807F0E945D008FE097E20197F1F72E
S113015000C00000CF91089581B18F6381B92FEF62
S113016080E792E0215080409040E1F700C0000019
S11301701598149880E30E945D008FE79EE3019731
S1130180F1F700C0000080E30E945D008FE891E079
S11301900197F1F700C0000080E30E945D008FE842
S11301A091E00197F1F700C0000088E20E945D0031
S11301B095E89A95F1F7000088E20E94950025E8F9
S11301C02A95F1F7000088E00E94950085E88A9559
S11301D0F1F7000081E00E9495008FE697E1019716
S11301E0F1F700C0000086E00E9495009AE69A9517
S11301F0F1F700C08CE00E94950025E82A95F1F7FC
S1130200000008951092C50083E38093C400E1ECDC
S1130210F0E088E1808386E08093C200808180687A
S113022080830895E0ECF0E080818823ECF78091EE
S1130230C60008950F931F93CF93DF9301E011E05D
S1130240C0E0D0E06BE772E0C8010E94EA03892BAA
S113025049F02196025F1F4FC330D10599F78FEF04
S11302609FEF02C08C2F9D2FDF91CF911F910F9193
S113027008951F920F920FB60F9211242F933F935C
S11302804F935F936F937F938F939F93AF93BF939A
S1130290EF93FF930E94120190918802911119C06B
S11302A0AAE7B2E01D96EC911D9791E09E0F1D9672
S11302B09C931D97F0E0E658FD4F80831D968C912A
S11302C01D978C3030F0FD0115861082138681E075
S11302D08687FF91EF91BF91AF919F918F917F910D
S11302E06F915F914F913F912F910F900FBE0F909F
S11302F01F901895E8ECF0E0908195FFFDCF809376
S1130300CE000895CF93DF93EC018881882331F0E8
S113031021960E947A0189918111FBCF8DE00E9480
S11303207A018AE00E947A01DF91CF910895E8EC86
S1130330F0E080818823ECF78091CE000895EF925D
S1130340FF920F931F93CF93DF937C0109E812E090
S1130350C0E0D0E0B701C8010E94EA03892B59F438
S113036084E38C9FF0018D9FF00D1124E757FD4F1E
S1130370108281E007C021960C5C1F4FCE30D1055E
S113038049F780E0DF91CF911F910F91FF90EF909B
S1130390089580E090E024E3289FF001299FF00D68
S11303A01124E757FD4F108201968E309105A1F775
S11303B010929505109296050895CF9381E00E94BE
S11303C095008AE291E00E94820080EC0E949500F0
S11303D08EE391E00E9482012FEF84E39CE02150A0
S11303E080409040E1F700C000008BE491E00E945F
S11303F09F01C82F882339F084E591E00E94820090
S11304000E94C90112C086E691E00E949F01C82F94
S1130410882339F08FE691E00E9482000E94C9018E
S1130420D4CF80E891E00E9482008C2FCF91089570
S1130430CF93DF93CDB7DEB76F970FB6F894DEBFD7
S11304400FBECDBF2FE1E6ECF1E0DE011196019085
S11304500D922A95E1F7DC01FE013A969E012C5E8D
S11304603F4F8D918193E217F307D9F76D8B83E9A1
S113047091E00E9482012FEF89E698E121508040AB
S11304809040E1F700C0000088EB91E00E948201F7
S11304902FEF89E698E1215080409040E1F700C0B9
S11304A00000CE0101960E9482018DE391E00E943A
S11304B082012FEF89E698E1215080409040E1F7D6
S11304C000C000006F960FB6F894DEBF0FBECDBF1C
S11304D0DF91CF9108951092CD0083E38093CC00F7
S11304E0E9ECF0E088E1808386E08093CA008081B3
S11304F0806880830E94C90185EE91E00E94820198
S113050081E00E9495008CEE91E00E9482002FEF22
S113051089E698E1215080409040E1F700C0000056
S113052080E092E00E949F01811118C081E00E9446
S1130530950086E092E00E94820080EC0E94950083
S113054081E192E00E9482002FEF89E698E1215038
S113055080409040E1F700C00000CCCF8FE192E0F2
S11305600E9482012FEF84E39CE021508040904060
S1130570E1F700C000000E94DD01882309F4BACF2E
S113058062E684E292E00E94180208951F920F929C
S11305900FB60F9211242F933F934F935F936F9352
S11305A07F938F939F93AF93BF93EF93FF930E9497
S11305B09701909195052091960530E0492F50E0E0
S11305C0F90164E3969FE00DF11D1124E757FD4FF7
S11305D0808312161306D4F484E3849FF001859F6C
S11305E0F00D1124E20FF31FE857FD4F80818D3089
S11305F069F484E3849FF001859FF00D1124E20FD8
S1130600F31FE757FD4F80818A3019F023333105FA
S1130610B9F484E3849FF001859FF00D11242E0F1B
S11306203F1FF901E857FD4F10824E30510511F07C
S11306309F5F01C090E0909395051092960505C0C8
S1130640E6E9F5E080818F5F8083FF91EF91BF91B0
S1130650AF919F918F917F916F915F914F913F9156
S11306602F910F900FBE0F901F9018951F93CF934B
S1130670DF9381E00E9495008FE292E00E94820065
S11306802FEF83ED90E3215080409040E1F700C0CC
S11306900000EAE7F2E086858823E9F381E00E941E
S11306A095000E941A01EC019923D4F48DE392E0A1
S11306B00E94820080EC0E9495008AE492E00E94ED
S11306C082002FEF83ED90E3215080409040E1F7CA
S11306D000C0000081E00E9495001092880269C069
S11306E08AE592E00E9482008C2F8F5C0E94750044
S11306F010928802CE01880F991FFC01EE0FFF1F94
S1130700EE0FFF1FEE0FFF1FE81BF90BE050FF4F2A
S11307108585882319F08130B9F02BC0CE01880F6C
S1130720991FFC01EE0FFF1FEE0FFF1FEE0FFF1FBF
S1130730E81BF90BE050FF4F81E085878EE592E0DE
S11307400E94820013E716C0CE01880F991FFC0196
S1130750EE0FFF1FEE0FFF1FEE0FFF1FE81BF90B3D
S1130760E050FF4F15868BE692E00E94820011E66E
S113077001C01FE380EC0E94950084E792E00E9490
S11307808200CF3F39F08EE0C802E0011124C0504E
S1130790DF4F02C0CAE7D2E02196CE010E94820058
S11307A0612FCE010E94180281E00E9495001092F0
S11307B08802DF91CF911F91089578940E94AC0034
S11307C00E9402010E946B0281E00E9495000E9437
S11307D03603FDCFFB01DC018D91019080190110DE
S10D07E0D9F3990B0895F894FFCFA4
S11307EA0032433030414336393345000001003387
S11307FA313030333744393344000001003646304F
S113080A303543414436300000015769666920692E
S113081A732E2E2E20202020202020202000415418
S113082A2B4349505354415455530053544154553E
S113083A533A3200436F6E6E6563746564212020F7
S113084A2020202020005354415455533A35004E59
S113085A6F7420436F6E6E65637465642E20200086
S113086A4E6F7420526573706F6E64696E672E20C2
S113087A20200041542B43495053544152543D22A1
S113088A544350222C2235322E32342E3132312E18
S113089A323335222C38300041542B4349505345C6
S11308AA4E443D333400474554202F6164642F235A
S11308BA2323232323232323232F2620485454503A
S11308CA2F312E300041542B52535400436F6E661D
S11308DA69677572696E6720576966692E2E2E00DC
S11308EA72656164790055415254206572726F725F
S11308FA0052657374617274696E672E2E2E0041FC
S113090A544530002D2D2D2D2D2D2D2D2D2D0052FC
S113091A6561647920746F205363616E0054686959
S113092A732063617264206973006E6F7420726548
S113093A67697374657265642E00446F6700207377
S113094A757272656E6465726564002061646F70A5
S10D095A7465640049443A2000006B
S9030000FC
