:100000000C943E000C945B000C945B000C945B0021
:100010000C945B000C945B000C945B000C945B00F4
:100020000C945B000C945B000C945B000C945B00E4
:100030000C945B000C945B000C945B000C945B00D4
:100040000C945B000C945B000C945B000C945B00C4
:100050000C9439010C945B000C945B000C945B00D5
:100060000C945B000C945B000C945B000C945B00A4
:100070000C94C6020C945B000C945B0011241FBE10
:10008000CFEFD0E1DEBFCDBF12E0A0E0B1E0ECECFD
:10009000F7E002C005900D92AE36B107D9F725E022
:1000A000AEE6B2E001C01D92AB38B207E1F70E94A4
:1000B000CE030C94E4030C940000109888230CF4F5
:1000C000109A119886FD119A129885FD129A13982C
:1000D00084FD139A149A82E08A95F1F700C014986F
:1000E00082E08A95F1F700C00895CF93C82F159A42
:1000F00014980E945D008C2F8295807F0E945D0085
:10010000CF910895CF93DF93EC018881882351F03C
:1001100021960E94750085E88A95F1F70000899183
:100120008111F7CFDF91CF910895CF93C82F159804
:1001300014980E945D008AE18A95F1F700C08C2F27
:100140008295807F0E945D008FE097E20197F1F732
:1001500000C00000CF91089581B18F6381B92FEF66
:1001600080E792E0215080409040E1F700C000001D
:100170001598149880E30E945D008FE79EE3019735
:10018000F1F700C0000080E30E945D008FE891E07D
:100190000197F1F700C0000080E30E945D008FE846
:1001A00091E00197F1F700C0000088E20E945D0035
:1001B00095E89A95F1F7000088E20E94950025E8FD
:1001C0002A95F1F7000088E00E94950085E88A955D
:1001D000F1F7000081E00E9495008FE697E101971A
:1001E000F1F700C0000086E00E9495009AE69A951B
:1001F000F1F700C08CE00E94950025E82A95F1F700
:10020000000008951092C50083E38093C400E1ECE0
:10021000F0E088E1808386E08093C200808180687E
:1002200080830895E0ECF0E080818823ECF78091F2
:10023000C60008950F931F93CF93DF9301E011E061
:10024000C0E0D0E06FE672E0C8010E94DB03892BBA
:1002500049F02196025F1F4FC330D10599F78FEF08
:100260009FEF02C08C2F9D2FDF91CF911F910F9197
:1002700008951F920F920FB60F9211242F933F9360
:100280004F935F936F937F938F939F93AF93BF939E
:10029000EF93FF930E94120190917C02911119C07B
:1002A000AEE6B2E01D96EC911D9791E09E0F1D9673
:1002B0009C931D97F0E0E259FD4F80831D968C9131
:1002C0001D978C3030F0FD0115861082138681E079
:1002D0008687FF91EF91BF91AF919F918F917F9111
:1002E0006F915F914F913F912F910F900FBE0F90A3
:1002F0001F901895E8ECF0E0908195FFFDCF80937A
:10030000CE000895CF93DF93EC018881882331F0EC
:1003100021960E947A0189918111FBCF8DE00E9484
:100320007A018AE00E947A01DF91CF910895E8EC8A
:10033000F0E080818823ECF78091CE000895EF9261
:10034000FF920F931F93CF93DF937C010DE712E091
:10035000C0E0D0E0B701C8010E94DB03892B59F44B
:1003600084E38C9FF0018D9FF00D1124E358FD4F25
:10037000108281E007C021960C5C1F4FCE30D10562
:1003800049F780E0DF91CF911F910F91FF90EF909F
:10039000089580E090E024E3289FF001299FF00D6C
:1003A0001124E358FD4F108201968E309105A1F77C
:1003B0001092890510928A050895CF9381E00E94DA
:1003C00095008AE291E00E94820080EC0E949500F4
:1003D0008EE391E00E9482012FEF84E39CE02150A4
:1003E00080409040E1F700C000008BE491E00E9463
:1003F0009F01C82F882339F084E591E00E94820094
:100400000E94C90112C086E691E00E949F01C82F98
:10041000882339F08FE691E00E9482000E94C90192
:10042000D4CF80E891E00E9482008C2FCF91089574
:10043000CF93DF93CDB7DEB76F970FB6F894DEBFDB
:100440000FBECDBF2FE1E5ECF1E0DE01119601908A
:100450000D922A95E1F7DC01FE013A969E012C5E91
:100460003F4F8D918193E217F307D9F76D8B83E9A5
:1004700091E00E9482012FEF89E698E121508040AF
:100480009040E1F700C0000087EB91E00E948201FC
:100490002FEF89E698E1215080409040E1F700C0BD
:1004A0000000CE0101960E9482018DE391E00E943E
:1004B00082012FEF89E698E1215080409040E1F7DA
:1004C00000C000006F960FB6F894DEBF0FBECDBF20
:1004D000DF91CF9108951092CD0083E38093CC00FB
:1004E000E9ECF0E088E1808386E08093CA008081B7
:1004F000806880830E94C90184EE91E00E9482019D
:1005000081E00E9495008BEE91E00E9482002FEF27
:1005100089E698E1215080409040E1F700C000005A
:100520008FEF91E00E949F01811118C081E00E942D
:10053000950085E092E00E94820080EC0E94950088
:1005400084E192E00E9482002FEF89E698E1215039
:1005500080409040E1F700C00000CCCF82E292E002
:100560000E9482012FEF84E39CE021508040904064
:10057000E1F700C000000E94DD01882309F4BACF32
:1005800062E687E292E00E94180208951F920F929D
:100590000FB60F9211242F933F934F935F936F9356
:1005A0007F938F939F93AF93BF93EF93FF930E949B
:1005B00097019091890520918A0530E0492F50E0FC
:1005C000F90164E3969FE00DF11D1124E358FD4FFE
:1005D000808312161306D4F484E3849FF001859F70
:1005E000F00D1124E20FF31FE458FD4F80818D3090
:1005F00069F484E3849FF001859FF00D1124E20FDC
:10060000F31FE358FD4F80818A3019F02333310501
:10061000B9F484E3849FF001859FF00D11242E0F1F
:100620003F1FF901E458FD4F10824E30510511F083
:100630009F5F01C090E09093890510928A0505C0E4
:10064000EAE8F5E080818F5F8083FF91EF91BF91B1
:10065000AF919F918F917F916F915F914F913F915A
:100660002F910F900FBE0F901F9018950F931F930F
:10067000CF93DF9381E00E94950082E392E00E9495
:1006800082002FEF83ED90E3215080409040E1F70E
:1006900000C00000EEE6F2E086858823E9F381E001
:1006A0000E9495000E941A01EC0199239CF480E4B9
:1006B00092E00E9482002FEF83ED90E32150804072
:1006C0009040E1F700C0000081E00E949500109288
:1006D0007C025FC08F3F39F08EE0C8028001112498
:1006E00000501F4F02C00EE612E00F5F1F4FC801FF
:1006F0000E94820080EC0E94950081E592E00E94B9
:10070000820010927C02CE01880F991FFC01EE0F2F
:10071000FF1FEE0FFF1FEE0FFF1FE81BF90BE0504E
:10072000FF4F8585882319F08130B1F029C0CC0FA7
:10073000DD1FFE01EE0FFF1FEE0FFF1FEE0FFF1F6D
:10074000EC1BFD0BE050FF4F81E0858788E592E0D0
:100750000E94820063E715C0CC0FDD1FFE01EE0F83
:10076000FF1FEE0FFF1FEE0FFF1FEC1BFD0BE050F6
:10077000FF4F158685E692E00E94820061E601C087
:100780006FE3C8010E94180281E00E949500109258
:100790007C02DF91CF911F910F91089578940E9470
:1007A000AC000E9402010E946B0281E00E94950051
:1007B0000E943603FDCFFB01DC018D910190801971
:0C07C0000110D9F3990B0895F894FFCFB5
:1007CC00004146464642463744424500000100423D
:1007DC0044464642374444424400000100444646E5
:1007EC004546464641453600000157696669206911
:1007FC00732E2E2E2020202020202020200041543B
:10080C002B43495053544154555300535441545560
:10081C00533A3200436F6E6E656374656421202019
:10082C002020202020005354415455533A35004E7B
:10083C006F7420436F6E6E65637465642E202000A8
:10084C004E6F7420526573706F6E64696E672E20E4
:10085C0020200041542B43495053544152543D22C3
:10086C00544350222C2233352E3136322E38372E2B
:10087C003230222C38300041542B43495053454ED2
:10088C00443D333400474554202F6164642F2323A7
:10089C0023232323232323232F2620485454502F50
:1008AC00312E300041542B52535400436F6E666905
:1008BC00677572696E6720576966692E2E2E0072F5
:1008CC006561647900486172647761726520657254
:1008DC00726F720052657374617274696E672E2E3A
:1008EC002E0041544530002D2D2D2D2D2D2D2D2D2F
:1008FC002D00526561647920746F205363616E0022
:10090C00546869732063617264206973206E657723
:10091C0000446F67206973002073757272656E6492
:0E092C0065726564002061646F70746564001C
:00000001FF
